:02000000E52CED
:10000800FF00030E8301DC000A08DB008A01861C5E
:100018001128D90A0319DA0A1B28061D18280130E5
:10002800D902031CDA031B28861D1B288B105B08CA
:0C0038008A005C0E8300FF0E7F0E0900A2
:0E004400213083120313FD00FD0B2628080057
:100052000F3083120313FC004730FD00FD0B2F28E5
:0A006200FC0B2F280000000008002E
:06006C0000000000080086
:1000720083120313EB1B3F280711402807156B1B44
:100082004428871145288715EB1A492807124A2860
:1000920007166B1A4E2887124F2887164A185328BC
:1000A200871754288713071736200713EB195B2885
:1000B20007115C2807156B196028871161288715BD
:1000C200EB1865280712662807166B186A2887122C
:1000D2006B2887164A186F28871770288713071707
:1000E200362007134A1C7728292078282220080066
:0800F200FA1FF21300300800B0
:1000FA0083120313F801F9011030FC00710DF80D99
:10010A00F90D7408F8027508031C750FF902031833
:10011A0095287408F80775080318750FF90703106E
:0A012A00F00DF10DFC0B8328080016
:100134007B15FB1FA4280130F300F201F101F0014B
:08014400FA0DF20CFF30080077
:0E014C00F201F101F001F801F30100300800AA
:10015A00FB14FB1FB728FF30F300F200F100F00098
:08016A00FA0DF20CFF30080051
:10017200710DF80DF90D7408F8027508031C750F5E
:10018200F902F00DF10D0F30FC00710DF80DF90DB3
:100192007408701CD228F8027508031C750FF90246
:1001A200D728F80775080318750FF907F00DF10D38
:1001B200FC0BC6287018E3287408F80775080318A2
:0801C200750FF90700000800A9
:1001CA000E3083120313FD00FD0BE928000008001E
:0E01DA00831203134C088A004B0882000800B1
:1001E80083120313E901053069020318022969081B
:1001F8006807840020308000E90AF7286908680742
:1002080084008001E90369086807EA000A30F400FD
:10021800F5016608F0006708F1007D207808F00015
:100228007908F1003030F0076A088400700880000F
:100238000A30F400F5016608F0006708F1007D2037
:100248007008E6007108E70000307106031D2E29CA
:1002580000307006031D31293329E90307290800F6
:10026800831203134A106608EB0039204A14080069
:06027800FB15FF30080039
:10027E007B14FB1F4A29F201FA1FFF30F200F10036
:0A028E00F000FA0DF20CFF3008003A
:10029800A0017208031D61297108F2007008F100BD
:1002A800F001A0157208031D61297108F200F1011F
:1002B800A0112016720803196F292008F302031DE4
:1002C800031C73290310F21B7729F00DF10DF20DB1
:1002D800F30B672973290130FC00A6207A29023024
:0E02E800FC009A207A290430FC0079200800DE
:1002F600831203137008F8007108F000F101F2018F
:10030600F301FB01FC019630F300FA01F01F91297D
:10031600F809F009F80A0319F00AFA177008F1004B
:0C0326007808F000F801F2014C210800FA
:10033200831203137408003A031DB4297508003AA6
:10034200031DB4297608003A031DB4297708003A40
:10035200031DB429FF30F000FF30F1007F30F200BE
:10036200FF30F3004F2A8312031377080319432A3D
:1003720073080319462A720876068039FA00F217C2
:10038200F617A0017208F8007108FC007008FD0061
:100392007408FD027508031C750FFC027608031C25
:1003A200760FF802F801FC01FD01031CDF2903109E
:1003B200F20CF10CF00CF80C0130A0007708F302FB
:1003C200031CE9297E302007F3070318492AEE2986
:1003D2007E302007F307031C4C2A1830FA07FD0D64
:1003E200FC0DF80DF00DF10DF20DA00D7408F002E8
:1003F2007508031C750FF1027608031C760FF202D2
:10040200760DA004201C072A7D14122A7408F00716
:1004120075080318750FF10776080318760AF207B4
:100422007D10FA031F307A05031DF0297B1B7D1C0A
:10043200392A0310F00DF10DF20DA00D7408F0022F
:100442007508031C750FF1027608031C760FF20281
:10045200760D20040139FD070318FC0A0319F80A76
:10046200031D392AF80CFC0CFD0CF30A0319492A66
:10047200FA1FF8137808F2007C08F1007D08F000FA
:1004820000304E2A01303C214E2A0230A6204E2A4C
:0E0492000430AD204E2A08309A2000000800E9
:1004A000831203139F01C0309F044209F0007008BB
:1004B00083169F051F179F1783125D08F000F00D2C
:1004C0007010F00D7010F00D701070089F041F1464
:1004D000E5201F151F1D6E2A00006A2A1F101E0826
:1004E000F100F00183161E08F0040030F10408004A
:1004F00083120313FB0173080319B52A7208FA006B
:10050000F2178E30F302F31FB82AF309F30A08300A
:100510007302031C9B2AF300F10D7208F100F20133
:1005200008307302031C9B2AF300F10DF1017308DC
:10053000031D0310A32A73080319A32A0310F20C46
:10054000F10CF30B9E2A7B1B711CAD2A031CAD2AF8
:10055000F10A0319F20AF21BC42AFA1FC72AF20988
:10056000F109F10A0319F20AC72AF201F101C72AB7
:100570007B14FB1FCA2AF201FA1FCA2AFF30F200BD
:10058000F100FA0DF20CCA2A0130FC00CC2A00302E
:10059000FC00CC2AFF30FC00FC080319D02A3F21C4
:0A05A0007108F0007208F100080075
:1005AA00831203137408003A031DE42A7508003AFB
:1005BA00031DE42AFF30F0007F30F1003D2B831247
:1005CA000313FD01F901F8017108700403190034DD
:1005DA0071087506FA00FA1BFD09FB01F51FFA2AD4
:1005EA00F409F509F40A0319F50AF11F012BF009B8
:1005FA00F109F00A0319F10A71087504FA00FA1BE5
:10060A00162BB9207B18292BFD1F0034F009F1099C
:10061A00F00A0319F10AF809F909F80A0319F90A9B
:10062A000034F51F252BF11B212B7108F9007008E6
:10063A00F800F101F001092BF101F001F00A003490
:10064A00F109F009FB0A062BF80A0319F90A7408DA
:10065A007802031D092B75087902031D092BF9017C
:10066A00F801F00A0319F10AF11F092B0000FF34FF
:02067A00080076
:10067C0083120313E201E3015D08E4005E08E50068
:10068C0080305E06F00080307002031D4F2B00306E
:10069C005D0203185D2B0130E2000030E3005D08C1
:1006AC00003CE4005E08031C013EE501E502640821
:1006BC00E6006508E7005F08E800F4200630E0007B
:1006CC000030E1006108003C031D6E2B6008003C0B
:1006DC000318892B60085F07F20001306002F000FC
:1006EC000030031C013E6102F10070085F078400BA
:1006FC000008F00072088400700880000130E002ED
:10070C00031CE103682B5F08840020308000620822
:10071C0063040319A72BE001E10160085F07840063
:10072C000008203A031D9E2BE00A0319E10A932BC3
:10073C000130E002031CE10360085F0784002D30E8
:04074C008000080021
:10075000FF3083120313D600FF30D700FF30D800DC
:10076000FF309F01C0309F044209F00070088316DB
:0C0770009F051F179F1783121F1408001D
:10077C0083120313FB017308031D77080319152C4F
:10078C0072087606FA007708F3077E30031CD22B2A
:10079C00F3020318182CD52BF302031C1B2C720824
:1007AC00F8007108FC007008FD00F817F61703102C
:1007BC00F201F101F0011830A0007D1CEF2B740840
:1007CC00F00775080318750FF10776080318760FF4
:1007DC00F207F20CF10CF00CF80CFC0CFD0C0310F5
:1007EC00A00BE32BF21BFF2BF80DF00DF10DF20D0E
:1007FC00F3037B1B701C112CF81F112CF00A03192E
:10080C00F10A0319F20A031D112CF20CF10CF00C75
:10081C00F30A0319182CFA1FF21300301D2C0130A7
:10082C00A6201D2C0230AD201D2C04309A20000077
:02083C000800B2
:10083E00312C803083120313DD00442CC030DD00D8
:10084E00442C9430DD00442CD430DD00442C803018
:10085E00DD00442C831203135D08013A0319202C8A
:10086E005D08023A0319252C5D08033A0319282C5A
:10087E005D08043A03192B2C2E2C5E03F0005D0844
:10088E00F0077008DD007008EB0039204A10E00117
:10089E0060085F078400000803195D2C60085F077D
:1008AE0084000008E6003421E00A4F2C4A140800A8
:1008BE008316031307138713871207128711071165
:1008CE008312071387130711871107128712292026
:1008DE0029202920071687160717362007132920E7
:1008EE00071736200713292007173620071329204C
:1008FE0087120717362007132920071736200713EC
:10090E000712071507173620071329200711871618
:10091E0007173620071387120717362007132920CB
:10092E0007173620071387160717362007132920B7
:10093E008712071736200713071587150716871610
:0C094E0007173620071329204A14080060
:10095A0083120313DE01DF015D08F2005D08F30074
:10096A00720884000008203A031DC02C5E085F0448
:10097A00031DC02CCD2C0130DE000030DF007208D0
:10098A0084000008F0007308840070088000F30AED
:10099A007208F100F20A710884000008003A031D87
:0809AA00B52C5D08F000080007
:1009B200ED208A110A128000840ACB0A0319CC0A9C
:0809C200F003031DD92C08000D
:1009CA00A625FF308316031386008B170B168B1090
:1009DA0007105F24A8230130EB0039200C30EB000C
:1009EA0039200130DD000430DE002130DF001F2411
:1009FA000230DD000630DE004330DF001F240B30FA
:100A0A00FB002630FC005D30FD00FD0B0A2DFC0BBF
:100A1A000A2DFB0B0A2D000000000130EB003920E3
:100A2A0007101E30D9000030DA00DD0150227008AC
:100A3A008312D4007108D5007B213730F400FD30D1
:100A4A00F5007930F6007D30F700BE237822700871
:100A5A00D4007108D5007B210A30F400D730F500A4
:100A6A002330F6007830F700992178227008D400F4
:100A7A007108D5006430F4000030F500D522700802
:100A8A00D4007108D5007008DD007108DE004D3011
:100A9A00DF003E230130DD000130DE003530DF00AB
:100AAA001F244D30DD00AD247008DF000130DD0069
:100ABA000D30DE001F24DF30E60034214330E6002B
:100ACA00342180305A06F000803055067002031D2A
:100ADA00702D540859020318742D0714752D071028
:040AEA001A2D762D1E
:100B4C0021308400293083120313F0007C30CB0059
:080B5C000530CC00D92408008B
:100AF8004434493447344934543441344C34203430
:100B0800543445344D3450344534523441345434DB
:080B1800553452344534003419
:100B2000543445344D3450344534523441345434C3
:0A0B30005534523445343D3400348E
:020B3A000F3476
:0E0B3C00533445344E3453344F345234003465
:02400E004A2F37
:00000001FF
